:100000000C9434000C9451000C9451000C94510049
:100010000C9451000C9451000C9451000C9451001C
:100020000C9451000C9451000C9451000C9451000C
:100030000C9451000C9451000C9451000C945100FC
:100040000C9490000C9451000C9451000C945100AD
:100050000C9451000C9451000C9451000C945100DC
:100060000C9451000C94510011241FBECFEFD8E026
:10007000DEBFCDBF11E0A0E0B1E0E0E7F4E002C0F8
:1000800005900D92AA30B107D9F721E0AAE0B1E0BE
:1000900001C01D92A931B207E1F70E94DA000C9469
:1000A00036020C9400003FB7F89480910B019091B8
:1000B0000C01A0910D01B0910E0126B5A89B05C0C1
:1000C0002F3F19F00196A11DB11D3FBFBA2FA92FD7
:1000D000982F8827BC01CD01620F711D811D911DD4
:1000E00042E0660F771F881F991F4A95D1F7089540
:1000F000CF92DF92EF92FF920E9453006B017C013E
:100100000E9453006C197D098E099F09683E734057
:1001100081059105A8F3FF90EF90DF90CF900895AF
:100120001F920F920FB60F9211242F933F938F932C
:100130009F93AF93BF9380910F0190911001A09175
:100140001101B091120130910A0123E0230F2D37E4
:1001500058F50196A11DB11D20930A0180930F014E
:1001600090931001A0931101B093120180910B01A3
:1001700090910C01A0910D01B0910E010196A11D6D
:10018000B11D80930B0190930C01A0930D01B093CE
:100190000E01BF91AF919F918F913F912F910F9041
:1001A0000FBE0F901F90189526E8230F0296A11DF1
:1001B000B11DD2CFCF93DF93CDB7DEB762970FB625
:1001C000F894DEBF0FBECDBF789484B5826084BD45
:1001D00084B5816084BD85B5826085BD85B581604B
:1001E00085BD80916E00816080936E0010928100C9
:1001F0008091810082608093810080918100816084
:100200008093810080918000816080938000809144
:10021000B10084608093B1008091B00081608093D0
:10022000B00080917A00846080937A0080917A0097
:10023000826080937A0080917A00816080937A0056
:1002400080917A00806880937A001092C1008FEFCD
:100250008AB98FE384B985B922242394312C882468
:100260008394912C95E0C92ED12C90921801809204
:10027000170180911701909118010A970CF0BDC0E9
:10028000F12CE12C8AE0A82EB12C8FB7F894409085
:100290000F015090100160901101709012018FBFFA
:1002A0000E94780010E000E02FB7F89480910F01D1
:1002B00090911001A0911101B09112012FBF8419EA
:1002C0009509A609B709883C9105A105B10508F073
:1002D00079C08AE0E0E0F1E0DE01119601900D9234
:1002E0008A95E1F780911501909116018A30910568
:1002F0000CF45EC0E0911301F091140121E030E0B4
:100300002C0F3D1FE20FF31F2081B5010E940E024A
:10031000E1E0F0E0EC0FFD1FE80FF91F80811A8A81
:10032000198AF6E7FB8739E73C8798E39D879E8724
:10033000ECE5EF87288B898B85B195B18095892B6A
:1003400085B925B1C101002E01C0880F0A94EAF7D2
:100350008095822385B9C701801B910B97FD03C04F
:100360008830910514F087E090E0EBE0F0E0EC0FCE
:10037000FD1FE80FF91F20812BB9B6010E940E0264
:10038000892B79F40330110561F4E0911501F091A6
:10039000160121E030E02C0F3D1FE20FF31F80819A
:1003A0008BB90E9478000F5F1F4F037011277CCF1D
:1003B000E1E0F0E0EC0FFD1F8E0F9F1FFC0120819C
:1003C00080E0ADCF3FEFE31AF30A8AE0E816F104CC
:1003D00009F05BCF809115019091160101969093E1
:1003E00016018093150180911701909118010196D3
:1003F00090931801809317013CCF80911301909145
:1004000014010196909314018093130180E090E011
:10041000892B09F42ACF0E94000024CF97FB072ED6
:1004200016F4009407D077FD09D00E94220207FC41
:1004300005D03EF4909581959F4F089570956195F4
:100440007F4F0895AA1BBB1B51E107C0AA1FBB1F0A
:10045000A617B70710F0A61BB70B881F991F5A9550
:10046000A9F780959095BC01CD010895F894FFCF30
:0A0470003F065B4F666D7D077F6F4E
:00000001FF
