:100000000C9434000C9451000C9451000C94510049
:100010000C9451000C9451000C9451000C9451001C
:100020000C9451000C9451000C9451000C9451000C
:100030000C9451000C9451000C9451000C945100FC
:100040000C9478000C9451000C9451000C945100C5
:100050000C9451000C9451000C9451000C945100DC
:100060000C9451000C94510011241FBECFEFD8E026
:10007000DEBFCDBF11E0A0E0B1E0ECEBF2E002C0EA
:1000800005900D92AC30B107D9F721E0ACE0B1E0BA
:1000900001C01D92A531B207E1F70E94C2000C9485
:1000A0005C010C9400003FB7F8948091110190918D
:1000B0001201A0911301B091140126B5A89B05C0AF
:1000C0002F3F19F00196A11DB11D3FBFBA2FA92FD7
:1000D000982F8827BC01CD01620F711D811D911DD4
:1000E00042E0660F771F881F991F4A95D1F7089540
:1000F0001F920F920FB60F9211242F933F938F935D
:100100009F93AF93BF9380910D0190910E01A091A9
:100110000F01B091100130910C0123E0230F2D3716
:1001200058F50196A11DB11D20930C0180930D017E
:1001300090930E01A0930F01B093100180911101D3
:1001400090911201A0911301B09114010196A11D8B
:10015000B11D8093110190931201A0931301B093EC
:100160001401BF91AF919F918F913F912F910F906B
:100170000FBE0F901F90189526E8230F0296A11D21
:10018000B11DD2CF789484B5826084BD84B581607E
:1001900084BD85B5826085BD85B5816085BD809152
:1001A0006E00816080936E001092810080918100CA
:1001B00082608093810080918100816080938100C2
:1001C000809180008160809380008091B100846084
:1001D0008093B1008091B00081608093B0008091E5
:1001E0007A00846080937A0080917A0082608093A4
:1001F0007A0080917A00816080937A0080917A0001
:10020000806880937A001092C1008FEF8AB98FE3E3
:1002100084B985B988248394912C20E0A22E20E013
:10022000B22ED0E0C0E085B195B18095892B85B91B
:1002300025B1C4010C2E01C0880F0A94EAF78095FD
:10024000822385B900E011E0F80181918F018BB91B
:100250000E9453002B013C0188ECC82ED12CE12CCC
:10026000F12C0E9453006419750986099709683EAC
:10027000734081059105A8F3F1E0CF1AD108E10898
:10028000F10828EE420E23E0521E611C711CC114BD
:10029000D104E104F10429F781E00B301807A1F63D
:1002A0002196C430D10509F0BECFA114B10409F4E0
:0C02B000B8CF0E940000B5CFF894FFCF3B
:0C02BC003F065B4F666D7D077F6F800082
:00000001FF
