:020000040000FA
:100000000C9434000C9451000C9451000C94510049
:100010000C9451000C9451000C9451000C9451001C
:100020000C9451000C9451000C9451000C9451000C
:100030000C9451000C9451000C9451000C945100FC
:100040000C9490000C9451000C9451000C945100AD
:100050000C9451000C9451000C9451000C945100DC
:100060000C9451000C94510011241FBECFEFD8E026
:10007000DEBFCDBF11E0A0E0B1E0ECE5F3E002C0EF
:1000800005900D92A630B107D9F721E0A6E0B1E0C6
:1000900001C01D92AF30B207E1F70E94DA000C9464
:1000A000AC010C9400003FB7F89480910701909147
:1000B0000801A0910901B0910A0126B5A89B05C0CD
:1000C0002F3F19F00196A11DB11D3FBFBA2FA92FD7
:1000D000982F8827BC01CD01620F711D811D911DD4
:1000E00042E0660F771F881F991F4A95D1F7089540
:1000F000CF92DF92EF92FF920E9453006B017C013E
:100100000E9453006C197D098E099F09683E734057
:1001100081059105A8F3FF90EF90DF90CF900895AF
:100120001F920F920FB60F9211242F933F938F932C
:100130009F93AF93BF9380910B0190910C01A0917D
:100140000D01B0910E013091060123E0230F2D37F0
:1001500058F50196A11DB11D2093060180930B0156
:1001600090930C01A0930D01B0930E0180910701B3
:1001700090910801A0910901B0910A010196A11D79
:10018000B11D8093070190930801A0930901B093DA
:100190000A01BF91AF919F918F913F912F910F9045
:1001A0000FBE0F901F90189526E8230F0296A11DF1
:1001B000B11DD2CF789484B5826084BD84B581604E
:1001C00084BD85B5826085BD85B5816085BD809122
:1001D0006E00816080936E0010928100809181009A
:1001E0008260809381008091810081608093810092
:1001F000809180008160809380008091B100846054
:100200008093B1008091B00081608093B0008091B4
:100210007A00846080937A0080917A008260809373
:100220007A0080917A00816080937A0080917A00D0
:10023000806880937A001092C1008FEF8AB98FE0B6
:1002400084B985B957E0F52E60E0C62E60E0D62E61
:1002500010E000E04BE0E42E8FB7F89480900B01A3
:1002600090900C01A0900D01B0900E018FBF0E94E4
:1002700078001C9B3EC034EF432E55245394612CD0
:10028000712CD0E0C0E08DE0382E9EE0292E2FB7F3
:10029000F89480910B0190910C01A0910D01B09107
:1002A0000E012FBF88199909AA09BB098415950564
:1002B000A605B70508F043C083B19FE095B985FD59
:1002C0002CC0C330D105D9F425B8C8018C1B9D0BB7
:1002D00097FD03C08630910514F085E090E03099D9
:1002E00028C0E0E8EBB90E9478002196C370DD27B2
:1002F000CECF24E6422E512C612C712CC2CFC230BD
:10030000D10511F435B8E1CFC130D10511F4E5B80C
:10031000DCCF2097D1F6F5B8D8CF2097A9F2C1301D
:10032000D10581F3C230D10591F3C330D10599F3E2
:10033000CCCF80509F4FFC0180818BB9D4CF0F5F11
:100340001F4F0A30110509F087CFC114D10409F4F9
:100350007FCF0E9400007CCFF894FFCF76793838A9
:020360005C003F
:107E0000112484B714BE81FFF0D085E080938100F7
:107E100082E08093C00088E18093C10086E0809377
:107E2000C20080E18093C4008EE0C9D0259A86E02C
:107E300020E33CEF91E0309385002093840096BBD3
:107E4000B09BFECF1D9AA8958150A9F7CC24DD24C4
:107E500088248394B5E0AB2EA1E19A2EF3E0BF2EE7
:107E6000A2D0813461F49FD0082FAFD0023811F036
:107E7000013811F484E001C083E08DD089C08234E0
:107E800011F484E103C0853419F485E0A6D080C0E4
:107E9000853579F488D0E82EFF2485D0082F10E0AE
:107EA000102F00270E291F29000F111F8ED06801E7
:107EB0006FC0863521F484E090D080E0DECF843638
:107EC00009F040C070D06FD0082F6DD080E0C81688
:107ED00080E7D80618F4F601B7BEE895C0E0D1E017
:107EE00062D089930C17E1F7F0E0CF16F0E7DF06D8
:107EF00018F0F601B7BEE89568D007B600FCFDCFD4
:107F0000A601A0E0B1E02C9130E011968C91119780
:107F100090E0982F8827822B932B1296FA010C0160
:107F200087BEE89511244E5F5F4FF1E0A038BF0790
:107F300051F7F601A7BEE89507B600FCFDCF97BE46
:107F4000E89526C08437B1F42ED02DD0F82E2BD052
:107F50003CD0F601EF2C8F010F5F1F4F84911BD097
:107F6000EA94F801C1F70894C11CD11CFA94CF0C13
:107F7000D11C0EC0853739F428D08EE10CD085E9AC
:107F80000AD08FE07ACF813511F488E018D01DD067
:107F900080E101D065CF982F8091C00085FFFCCF94
:107FA0009093C60008958091C00087FFFCCF809118
:107FB000C00084FD01C0A8958091C6000895E0E648
:107FC000F0E098E1908380830895EDDF803219F02E
:107FD00088E0F5DFFFCF84E1DECF1F93182FE3DFCA
:107FE0001150E9F7F2DF1F91089580E0E8DFEE27F6
:047FF000FF270994CA
:027FFE00040479
:00000001FF
