:100000000C9434000C9451000C9451000C94510049
:100010000C9451000C9451000C9451000C9451001C
:100020000C9451000C9451000C9451000C9451000C
:100030000C9451000C9451000C9451000C945100FC
:100040000C9490000C9451000C9451000C945100AD
:100050000C9451000C9451000C9451000C945100DC
:100060000C9451000C94510011241FBECFEFD8E026
:10007000DEBFCDBF11E0A0E0B1E0ECE5F3E002C0EF
:1000800005900D92A630B107D9F721E0A6E0B1E0C6
:1000900001C01D92AF30B207E1F70E94DA000C9464
:1000A000AC010C9400003FB7F89480910701909147
:1000B0000801A0910901B0910A0126B5A89B05C0CD
:1000C0002F3F19F00196A11DB11D3FBFBA2FA92FD7
:1000D000982F8827BC01CD01620F711D811D911DD4
:1000E00042E0660F771F881F991F4A95D1F7089540
:1000F000CF92DF92EF92FF920E9453006B017C013E
:100100000E9453006C197D098E099F09683E734057
:1001100081059105A8F3FF90EF90DF90CF900895AF
:100120001F920F920FB60F9211242F933F938F932C
:100130009F93AF93BF9380910B0190910C01A0917D
:100140000D01B0910E013091060123E0230F2D37F0
:1001500058F50196A11DB11D2093060180930B0156
:1001600090930C01A0930D01B0930E0180910701B3
:1001700090910801A0910901B0910A010196A11D79
:10018000B11D8093070190930801A0930901B093DA
:100190000A01BF91AF919F918F913F912F910F9045
:1001A0000FBE0F901F90189526E8230F0296A11DF1
:1001B000B11DD2CF789484B5826084BD84B581604E
:1001C00084BD85B5826085BD85B5816085BD809122
:1001D0006E00816080936E0010928100809181009A
:1001E0008260809381008091810081608093810092
:1001F000809180008160809380008091B100846054
:100200008093B1008091B00081608093B0008091B4
:100210007A00846080937A0080917A008260809373
:100220007A0080917A00816080937A0080917A00D0
:10023000806880937A001092C1008FEF8AB98FE0B6
:1002400084B985B957E0F52E60E0C62E60E0D62E61
:1002500010E000E04BE0E42E8FB7F89480900B01A3
:1002600090900C01A0900D01B0900E018FBF0E94E4
:1002700078001C9B3EC034EF432E55245394612CD0
:10028000712CD0E0C0E08DE0382E9EE0292E2FB7F3
:10029000F89480910B0190910C01A0910D01B09107
:1002A0000E012FBF88199909AA09BB098415950564
:1002B000A605B70508F043C083B19FE095B985FD59
:1002C0002CC0C330D105D9F425B8C8018C1B9D0BB7
:1002D00097FD03C08630910514F085E090E03099D9
:1002E00028C0E0E8EBB90E9478002196C370DD27B2
:1002F000CECF24E6422E512C612C712CC2CFC230BD
:10030000D10511F435B8E1CFC130D10511F4E5B80C
:10031000DCCF2097D1F6F5B8D8CF2097A9F2C1301D
:10032000D10581F3C230D10591F3C330D10599F3E2
:10033000CCCF80509F4FFC0180818BB9D4CF0F5F11
:100340001F4F0A30110509F087CFC114D10409F4F9
:0C0350007FCF0E9400007CCFF894FFCF0C
:06035C00767938385C00E0
:00000001FF
