:100000000C945C000C946E000C946E000C946E00CA
:100010000C94EB000C946E000C946E000C946E002B
:100020000C946E000C946E000C946E000C946E0098
:100030000C946E000C946E000C946E000C946E0088
:100040000C94A1000C946E000C946E000C946E0045
:100050000C946E000C946E000C946E000C946E0068
:100060000C946E000C946E00000000002400270029
:100070002A0000000000250028002B0004040404CE
:100080000404040402020202020203030303030342
:10009000010204081020408001020408102001021F
:1000A00004081020000000080002010000030407FB
:1000B000000000000000000011241FBECFEFD8E0B8
:1000C000DEBFCDBF21E0A0E0B1E001C01D92AA30AB
:1000D000B207E1F70E9400010C94B9010C940000F2
:1000E000CF93DF9390E0FC01E057FF4F24918458B9
:1000F0009F4FFC0184918823D1F090E0880F991FD5
:10010000FC01E859FF4FA591B491FC01EE58FF4F57
:10011000C591D491623071F49FB7F8943C91822FCD
:10012000809583238C93E8812E2B28839FBFDF91BA
:10013000CF9108958FB7F894EC912E2B2C938FBF0D
:10014000F6CF1F920F920FB60F9211242F933F9369
:100150008F939F93AF93BF93809106019091070176
:10016000A0910801B09109013091050123E0230F0E
:100170002D3758F50196A11DB11D209305018093DF
:10018000060190930701A0930801B09309018091A3
:10019000010190910201A0910301B0910401019627
:1001A000A11DB11D8093010190930201A093030151
:1001B000B0930401BF91AF919F918F913F912F9187
:1001C0000F900FBE0F901F90189526E8230F0296F0
:1001D000A11DB11DD2CF1F920F920FB60F92112405
:1001E0008F939F939091000181E0911180E0809323
:1001F00000019F918F910F900FBE0F901F90189547
:10020000789484B5826084BD84B5816084BD85B5F1
:10021000826085BD85B5816085BD80916E008160FD
:1002200080936E00109281008091810082608093A3
:1002300081008091810081608093810080918000A5
:100240008160809380008091B10084608093B100D0
:100250008091B00081608093B00080917A008460CA
:1002600080937A0080917A00826080937A008091F6
:100270007A00816080937A0080917A008068809310
:100280007A001092C10061E08DE00E94700062E08F
:100290008EE00E94700062E087E00E94700062E0E1
:1002A00088E00E94700081E080936B0080936C0076
:1002B00080E880936D001BBA82E080936800C1EBF8
:1002C000D0E00DE910E029E8E22E20E0F22E30E047
:1002D000C32E30E0D32E20910001FE019491F8014D
:1002E0008491F70134913323D1F0992339F093307D
:1002F00031F1D8F4913049F1923059F1E32FF0E027
:10030000EE0FFF1FEE58FF4FA591B4919FB7F894E1
:1003100021112CC02C91809582238C939FBFC114F6
:10032000D104C9F20E940000D6CF9730A9F09830CE
:10033000C9F0943019F7909180009F7D03C090918F
:1003400080009F7790938000D9CF94B59F7794BD1C
:10035000D5CF94B59F7DFBCF9091B0009F779093C0
:10036000B000CCCF9091B0009F7DF9CF2C91822B23
:06037000D4CFF894FFCF8A
:00000001FF
